grep '^SEURD..............LS' reference/euroav15.pc
SEURD        CVA   LS011205 DH                     CVA N46250500E009491800     109872  278WGECORVATSCH                     215980504
SEURD        FRI   LS011085VDUW N46463930E007132460    N46463930E007132460E0020026592     WGEFRIBOURG                      216701504
SEURD        GRE   LS011545VDLW N47105935E007250545    N47105935E007250545E0020014351  116WGEGRENCHEN                      217001308
SEURD        GVA   LS011575VDHW N46151410E006075600    N46151410E006075600E0010013772  277WGEGENEVA                        217120813
SEURD        HOC   LS011320VDUW N47275960E007395560    N47275960E007395560E0020024252  391WGEHOCHWALD                      217351413
SEURD        KLO   LS011485VDUW N47272570E008324410    N47272570E008324410E0020014102  242WGEKLOTEN (ZURICH)               217851413
SEURD        LAP   LS011065 DH                     LAP N46403400E006244800     042442  351WGELA PRAZ                       218150504
SEURD        PAS   LS011660VDHW N46094930E005595970    N46094930E005595970E0010014152  353WGEPASSEIRY                      219800813
SEURD        SIO   LS011215VDHW N46125580E007171960    N46125580E007171960E0010015942  184WGESION                          220760802
SEURD        SPR   LS011390VDHW N46280730E006265300    N46280730E006265300E0010012522  327WGEST PREX                       221050813
SEURD        TRA   LS011430VDHW N47412220E008261310    N47412220E008261310E0020018502  289WGETRASADINGEN                   221701413
SEURD        WFJ   LS011375 DH                     WFJ N46500450E009474250     094782  455WGEWEISSFLUHGIPFEL               222430612
SEURD        WIL   LS011690VDUW N47104190E007542130    N47104190E007542130E0020024172  324WGEWILLISAU                      222471413
SEURD        ZUE   LS011005VDHW N47353180E008490360    N47353180E008490360E0020017302  310WGEZURICH EAST                   222711413
SEURDB       BER   LS003350H LW N46535682E007303774                       E0020           WGEBERN                          229511303
SEURDB       GLA   LS003750H MW N46243130E006143930                       E0010           WGEGLAND                         231400813
SEURDB       LPS   LS004030H MW N47050120E006473800                       E0010           WGELES EPLATURES                 233000712




grep '^SEURD..............LS' out.txt
SEURD        GVA   LS011575VDUW N46151410E006075600    N46151410E006075600E0010013771  040WGEGENEVA                        033850001
SEURD        FRI   LS011085VDUW N46463930E007132460    N46463930E007132460E0020026591  040WGEFRIBOURG                      042710001
SEURDB       GLA   LS003750H MW N46243130E006143930                       E0014           WGEGLAND                         042720001
SEURD        HOC   LS011320VDUW N47280000E007395560    N47280000E007395560E0020024251  040WGEHOCHWALD                      042730001
SEURD        PAS   LS011660VDUW N46094930E006000000    N46094930E006000000E0010014151  040WGEPASSEIRY                      042740001
SEURD        SIO   LS011215VDUW N46125580E007171960    N46125580E007171960E0020015941  040WGESION                          042750001
SEURD        TRA   LS011430VDUW N47412220E008261310    N47412220E008261310E0020018501  040WGETRASADINGEN                   042760001
SEURD        WIL   LS011690VDUW N47104190E007542130    N47104190E007542130E0020024171  040WGEWILLISAU                      042770001
SEURD        ZUE   LS011005VDUW N47353180E008490360    N47353180E008490360E0020017301  040WGEZURICH EAST                   042780001
SEURD        CVA   LS011205 D                      CVA N46250500E009491800     109871  040WGECORVATSCH                     048610001
SEURD        LAP   LS011065 D                      LAP N46403400E006244800     042441  040WGELA PRAZ                       048620001
SEURD        SPR   LS011390VDUW N46280730E006265300    N46280730E006265300E0020012521  040WGEST-PREX                       048630001
SEURD        WFJ   LS011375 D                      WFJ N46500450E009474250     094781  040WGEWEISSFLUHGIPFEL               048640001


compare:
ofm
SEURDB       GLA   LS003750H MW N46243130E006143930                       E0014           WGEGLAND                         042720001
SEURD        TRA   LS011430VDUW N47412220E008261310    N47412220E008261310E0020018501  040WGETRASADINGEN                   042760001

jepp
SEURD        TRA   LS011430VDHW N47412220E008261310    N47412220E008261310E0020018502  289WGETRASADINGEN                   221701413

SEURDB       GLA   LS003750H MW N46243130E006143930                       E0010           WGEGLAND                         231400813
